{
  "_format": "hh-sol-artifact-1",
  "contractName": "StreamerNFT",
  "sourceName": "contracts/StreamerNFT.sol",
  "abi": [
    {
      "inputs": [],
      "stateMutability": "nonpayable",
      "type": "constructor"
    },
    {
      "inputs": [
        {
          "internalType": "address",
          "name": "sender",
          "type": "address"
        },
        {
          "internalType": "uint256",
          "name": "tokenId",
          "type": "uint256"
        },
        {
          "internalType": "address",
          "name": "owner",
          "type": "address"
        }
      ],
      "name": "ERC721IncorrectOwner",
      "type": "error"
    },
    {
      "inputs": [
        {
          "internalType": "address",
          "name": "operator",
          "type": "address"
        },
        {
          "internalType": "uint256",
          "name": "tokenId",
          "type": "uint256"
        }
      ],
      "name": "ERC721InsufficientApproval",
      "type": "error"
    },
    {
      "inputs": [
        {
          "internalType": "address",
          "name": "approver",
          "type": "address"
        }
      ],
      "name": "ERC721InvalidApprover",
      "type": "error"
    },
    {
      "inputs": [
        {
          "internalType": "address",
          "name": "operator",
          "type": "address"
        }
      ],
      "name": "ERC721InvalidOperator",
      "type": "error"
    },
    {
      "inputs": [
        {
          "internalType": "address",
          "name": "owner",
          "type": "address"
        }
      ],
      "name": "ERC721InvalidOwner",
      "type": "error"
    },
    {
      "inputs": [
        {
          "internalType": "address",
          "name": "receiver",
          "type": "address"
        }
      ],
      "name": "ERC721InvalidReceiver",
      "type": "error"
    },
    {
      "inputs": [
        {
          "internalType": "address",
          "name": "sender",
          "type": "address"
        }
      ],
      "name": "ERC721InvalidSender",
      "type": "error"
    },
    {
      "inputs": [
        {
          "internalType": "uint256",
          "name": "tokenId",
          "type": "uint256"
        }
      ],
      "name": "ERC721NonexistentToken",
      "type": "error"
    },
    {
      "inputs": [
        {
          "internalType": "address",
          "name": "owner",
          "type": "address"
        }
      ],
      "name": "OwnableInvalidOwner",
      "type": "error"
    },
    {
      "inputs": [
        {
          "internalType": "address",
          "name": "account",
          "type": "address"
        }
      ],
      "name": "OwnableUnauthorizedAccount",
      "type": "error"
    },
    {
      "anonymous": false,
      "inputs": [
        {
          "indexed": true,
          "internalType": "address",
          "name": "owner",
          "type": "address"
        },
        {
          "indexed": true,
          "internalType": "address",
          "name": "approved",
          "type": "address"
        },
        {
          "indexed": true,
          "internalType": "uint256",
          "name": "tokenId",
          "type": "uint256"
        }
      ],
      "name": "Approval",
      "type": "event"
    },
    {
      "anonymous": false,
      "inputs": [
        {
          "indexed": true,
          "internalType": "address",
          "name": "owner",
          "type": "address"
        },
        {
          "indexed": true,
          "internalType": "address",
          "name": "operator",
          "type": "address"
        },
        {
          "indexed": false,
          "internalType": "bool",
          "name": "approved",
          "type": "bool"
        }
      ],
      "name": "ApprovalForAll",
      "type": "event"
    },
    {
      "anonymous": false,
      "inputs": [
        {
          "indexed": true,
          "internalType": "uint256",
          "name": "tokenId",
          "type": "uint256"
        },
        {
          "indexed": false,
          "internalType": "string",
          "name": "newTokenURI",
          "type": "string"
        }
      ],
      "name": "MetadataUpdated",
      "type": "event"
    },
    {
      "anonymous": false,
      "inputs": [
        {
          "indexed": true,
          "internalType": "address",
          "name": "previousOwner",
          "type": "address"
        },
        {
          "indexed": true,
          "internalType": "address",
          "name": "newOwner",
          "type": "address"
        }
      ],
      "name": "OwnershipTransferred",
      "type": "event"
    },
    {
      "anonymous": false,
      "inputs": [
        {
          "indexed": true,
          "internalType": "address",
          "name": "from",
          "type": "address"
        },
        {
          "indexed": true,
          "internalType": "address",
          "name": "to",
          "type": "address"
        },
        {
          "indexed": true,
          "internalType": "uint256",
          "name": "tokenId",
          "type": "uint256"
        }
      ],
      "name": "Transfer",
      "type": "event"
    },
    {
      "inputs": [
        {
          "internalType": "address",
          "name": "to",
          "type": "address"
        },
        {
          "internalType": "uint256",
          "name": "tokenId",
          "type": "uint256"
        }
      ],
      "name": "approve",
      "outputs": [],
      "stateMutability": "nonpayable",
      "type": "function"
    },
    {
      "inputs": [
        {
          "internalType": "address",
          "name": "owner",
          "type": "address"
        }
      ],
      "name": "balanceOf",
      "outputs": [
        {
          "internalType": "uint256",
          "name": "",
          "type": "uint256"
        }
      ],
      "stateMutability": "view",
      "type": "function"
    },
    {
      "inputs": [
        {
          "internalType": "uint256",
          "name": "tokenId",
          "type": "uint256"
        }
      ],
      "name": "getApproved",
      "outputs": [
        {
          "internalType": "address",
          "name": "",
          "type": "address"
        }
      ],
      "stateMutability": "view",
      "type": "function"
    },
    {
      "inputs": [
        {
          "internalType": "address",
          "name": "owner",
          "type": "address"
        },
        {
          "internalType": "address",
          "name": "operator",
          "type": "address"
        }
      ],
      "name": "isApprovedForAll",
      "outputs": [
        {
          "internalType": "bool",
          "name": "",
          "type": "bool"
        }
      ],
      "stateMutability": "view",
      "type": "function"
    },
    {
      "inputs": [
        {
          "internalType": "address",
          "name": "to",
          "type": "address"
        },
        {
          "internalType": "string",
          "name": "initialTokenURI",
          "type": "string"
        }
      ],
      "name": "mint",
      "outputs": [],
      "stateMutability": "nonpayable",
      "type": "function"
    },
    {
      "inputs": [],
      "name": "name",
      "outputs": [
        {
          "internalType": "string",
          "name": "",
          "type": "string"
        }
      ],
      "stateMutability": "view",
      "type": "function"
    },
    {
      "inputs": [],
      "name": "nextTokenId",
      "outputs": [
        {
          "internalType": "uint256",
          "name": "",
          "type": "uint256"
        }
      ],
      "stateMutability": "view",
      "type": "function"
    },
    {
      "inputs": [],
      "name": "owner",
      "outputs": [
        {
          "internalType": "address",
          "name": "",
          "type": "address"
        }
      ],
      "stateMutability": "view",
      "type": "function"
    },
    {
      "inputs": [
        {
          "internalType": "uint256",
          "name": "tokenId",
          "type": "uint256"
        }
      ],
      "name": "ownerOf",
      "outputs": [
        {
          "internalType": "address",
          "name": "",
          "type": "address"
        }
      ],
      "stateMutability": "view",
      "type": "function"
    },
    {
      "inputs": [],
      "name": "renounceOwnership",
      "outputs": [],
      "stateMutability": "nonpayable",
      "type": "function"
    },
    {
      "inputs": [
        {
          "internalType": "address",
          "name": "from",
          "type": "address"
        },
        {
          "internalType": "address",
          "name": "to",
          "type": "address"
        },
        {
          "internalType": "uint256",
          "name": "tokenId",
          "type": "uint256"
        }
      ],
      "name": "safeTransferFrom",
      "outputs": [],
      "stateMutability": "nonpayable",
      "type": "function"
    },
    {
      "inputs": [
        {
          "internalType": "address",
          "name": "from",
          "type": "address"
        },
        {
          "internalType": "address",
          "name": "to",
          "type": "address"
        },
        {
          "internalType": "uint256",
          "name": "tokenId",
          "type": "uint256"
        },
        {
          "internalType": "bytes",
          "name": "data",
          "type": "bytes"
        }
      ],
      "name": "safeTransferFrom",
      "outputs": [],
      "stateMutability": "nonpayable",
      "type": "function"
    },
    {
      "inputs": [
        {
          "internalType": "address",
          "name": "operator",
          "type": "address"
        },
        {
          "internalType": "bool",
          "name": "approved",
          "type": "bool"
        }
      ],
      "name": "setApprovalForAll",
      "outputs": [],
      "stateMutability": "nonpayable",
      "type": "function"
    },
    {
      "inputs": [
        {
          "internalType": "bytes4",
          "name": "interfaceId",
          "type": "bytes4"
        }
      ],
      "name": "supportsInterface",
      "outputs": [
        {
          "internalType": "bool",
          "name": "",
          "type": "bool"
        }
      ],
      "stateMutability": "view",
      "type": "function"
    },
    {
      "inputs": [],
      "name": "symbol",
      "outputs": [
        {
          "internalType": "string",
          "name": "",
          "type": "string"
        }
      ],
      "stateMutability": "view",
      "type": "function"
    },
    {
      "inputs": [
        {
          "internalType": "uint256",
          "name": "tokenId",
          "type": "uint256"
        }
      ],
      "name": "tokenURI",
      "outputs": [
        {
          "internalType": "string",
          "name": "",
          "type": "string"
        }
      ],
      "stateMutability": "view",
      "type": "function"
    },
    {
      "inputs": [
        {
          "internalType": "address",
          "name": "from",
          "type": "address"
        },
        {
          "internalType": "address",
          "name": "to",
          "type": "address"
        },
        {
          "internalType": "uint256",
          "name": "tokenId",
          "type": "uint256"
        }
      ],
      "name": "transferFrom",
      "outputs": [],
      "stateMutability": "nonpayable",
      "type": "function"
    },
    {
      "inputs": [
        {
          "internalType": "address",
          "name": "newOwner",
          "type": "address"
        }
      ],
      "name": "transferOwnership",
      "outputs": [],
      "stateMutability": "nonpayable",
      "type": "function"
    },
    {
      "inputs": [
        {
          "internalType": "uint256",
          "name": "tokenId",
          "type": "uint256"
        },
        {
          "internalType": "string",
          "name": "newTokenURI",
          "type": "string"
        }
      ],
      "name": "updateTokenURI",
      "outputs": [],
      "stateMutability": "nonpayable",
      "type": "function"
    }
  ],
  "bytecode": "0x60806040523480156200001157600080fd5b50336040518060400160405280601381526020017f53747265616d6572204d656d6f7279204e4654000000000000000000000000008152506040518060400160405280600581526020017f534d4e4654000000000000000000000000000000000000000000000000000000815250816000908162000090919062000472565b508060019081620000a2919062000472565b505050600073ffffffffffffffffffffffffffffffffffffffff168173ffffffffffffffffffffffffffffffffffffffff16036200011a5760006040517f1e4fbdf70000000000000000000000000000000000000000000000000000000081526004016200011191906200059e565b60405180910390fd5b6200012b816200013260201b60201c565b50620005bb565b6000600660009054906101000a900473ffffffffffffffffffffffffffffffffffffffff16905081600660006101000a81548173ffffffffffffffffffffffffffffffffffffffff021916908373ffffffffffffffffffffffffffffffffffffffff1602179055508173ffffffffffffffffffffffffffffffffffffffff168173ffffffffffffffffffffffffffffffffffffffff167f8be0079c531659141344cd1fd0a4f28419497f9722a3daafe3b4186f6b6457e060405160405180910390a35050565b600081519050919050565b7f4e487b7100000000000000000000000000000000000000000000000000000000600052604160045260246000fd5b7f4e487b7100000000000000000000000000000000000000000000000000000000600052602260045260246000fd5b600060028204905060018216806200027a57607f821691505b60208210810362000290576200028f62000232565b5b50919050565b60008190508160005260206000209050919050565b60006020601f8301049050919050565b600082821b905092915050565b600060088302620002fa7fffffffffffffffffffffffffffffffffffffffffffffffffffffffffffffffff82620002bb565b620003068683620002bb565b95508019841693508086168417925050509392505050565b6000819050919050565b6000819050919050565b6000620003536200034d62000347846200031e565b62000328565b6200031e565b9050919050565b6000819050919050565b6200036f8362000332565b620003876200037e826200035a565b848454620002c8565b825550505050565b600090565b6200039e6200038f565b620003ab81848462000364565b505050565b5b81811015620003d357620003c760008262000394565b600181019050620003b1565b5050565b601f8211156200042257620003ec8162000296565b620003f784620002ab565b8101602085101562000407578190505b6200041f6200041685620002ab565b830182620003b0565b50505b505050565b600082821c905092915050565b6000620004476000198460080262000427565b1980831691505092915050565b600062000462838362000434565b9150826002028217905092915050565b6200047d82620001f8565b67ffffffffffffffff81111562000499576200049862000203565b5b620004a5825462000261565b620004b2828285620003d7565b600060209050601f831160018114620004ea5760008415620004d5578287015190505b620004e1858262000454565b86555062000551565b601f198416620004fa8662000296565b60005b828110156200052457848901518255600182019150602085019450602081019050620004fd565b8683101562000544578489015162000540601f89168262000434565b8355505b6001600288020188555050505b505050505050565b600073ffffffffffffffffffffffffffffffffffffffff82169050919050565b6000620005868262000559565b9050919050565b620005988162000579565b82525050565b6000602082019050620005b560008301846200058d565b92915050565b61238780620005cb6000396000f3fe608060405234801561001057600080fd5b50600436106101215760003560e01c8063715018a6116100ad578063b88d4fde11610071578063b88d4fde146102f4578063c87b56dd14610310578063d0def52114610340578063e985e9c51461035c578063f2fde38b1461038c57610121565b8063715018a61461027457806375794a3c1461027e5780638da5cb5b1461029c57806395d89b41146102ba578063a22cb465146102d857610121565b806318e97fd1116100f457806318e97fd1146101c057806323b872dd146101dc57806342842e0e146101f85780636352211e1461021457806370a082311461024457610121565b806301ffc9a71461012657806306fdde0314610156578063081812fc14610174578063095ea7b3146101a4575b600080fd5b610140600480360381019061013b9190611812565b6103a8565b60405161014d919061185a565b60405180910390f35b61015e61048a565b60405161016b9190611905565b60405180910390f35b61018e6004803603810190610189919061195d565b61051c565b60405161019b91906119cb565b60405180910390f35b6101be60048036038101906101b99190611a12565b610538565b005b6101da60048036038101906101d59190611b87565b61054e565b005b6101f660048036038101906101f19190611be3565b6105bd565b005b610212600480360381019061020d9190611be3565b6106bf565b005b61022e6004803603810190610229919061195d565b6106df565b60405161023b91906119cb565b60405180910390f35b61025e60048036038101906102599190611c36565b6106f1565b60405161026b9190611c72565b60405180910390f35b61027c6107ab565b005b6102866107bf565b6040516102939190611c72565b60405180910390f35b6102a46107c5565b6040516102b191906119cb565b60405180910390f35b6102c26107ef565b6040516102cf9190611905565b60405180910390f35b6102f260048036038101906102ed9190611cb9565b610881565b005b61030e60048036038101906103099190611d9a565b610897565b005b61032a6004803603810190610325919061195d565b6108bc565b6040516103379190611905565b60405180910390f35b61035a60048036038101906103559190611e1d565b61096b565b005b61037660048036038101906103719190611e79565b6109fa565b604051610383919061185a565b60405180910390f35b6103a660048036038101906103a19190611c36565b610a8e565b005b60007f80ac58cd000000000000000000000000000000000000000000000000000000007bffffffffffffffffffffffffffffffffffffffffffffffffffffffff1916827bffffffffffffffffffffffffffffffffffffffffffffffffffffffff1916148061047357507f5b5e139f000000000000000000000000000000000000000000000000000000007bffffffffffffffffffffffffffffffffffffffffffffffffffffffff1916827bffffffffffffffffffffffffffffffffffffffffffffffffffffffff1916145b80610483575061048282610b14565b5b9050919050565b60606000805461049990611ee8565b80601f01602080910402602001604051908101604052809291908181526020018280546104c590611ee8565b80156105125780601f106104e757610100808354040283529160200191610512565b820191906000526020600020905b8154815290600101906020018083116104f557829003601f168201915b5050505050905090565b600061052782610b7e565b5061053182610c06565b9050919050565b61054a8282610545610c43565b610c4b565b5050565b610556610c5d565b61055f82610b7e565b508060086000848152602001908152602001600020908161058091906120c5565b50817f459157ba24c7ab9878b165ef465fa6ae2ab42bcd8445f576be378768b0c47309826040516105b19190611905565b60405180910390a25050565b600073ffffffffffffffffffffffffffffffffffffffff168273ffffffffffffffffffffffffffffffffffffffff160361062f5760006040517f64a0ae9200000000000000000000000000000000000000000000000000000000815260040161062691906119cb565b60405180910390fd5b6000610643838361063e610c43565b610ce4565b90508373ffffffffffffffffffffffffffffffffffffffff168173ffffffffffffffffffffffffffffffffffffffff16146106b9578382826040517f64283d7b0000000000000000000000000000000000000000000000000000000081526004016106b093929190612197565b60405180910390fd5b50505050565b6106da83838360405180602001604052806000815250610897565b505050565b60006106ea82610b7e565b9050919050565b60008073ffffffffffffffffffffffffffffffffffffffff168273ffffffffffffffffffffffffffffffffffffffff16036107645760006040517f89c62b6400000000000000000000000000000000000000000000000000000000815260040161075b91906119cb565b60405180910390fd5b600360008373ffffffffffffffffffffffffffffffffffffffff1673ffffffffffffffffffffffffffffffffffffffff168152602001908152602001600020549050919050565b6107b3610c5d565b6107bd6000610efe565b565b60075481565b6000600660009054906101000a900473ffffffffffffffffffffffffffffffffffffffff16905090565b6060600180546107fe90611ee8565b80601f016020809104026020016040519081016040528092919081815260200182805461082a90611ee8565b80156108775780601f1061084c57610100808354040283529160200191610877565b820191906000526020600020905b81548152906001019060200180831161085a57829003601f168201915b5050505050905090565b61089361088c610c43565b8383610fc4565b5050565b6108a28484846105bd565b6108b66108ad610c43565b85858585611133565b50505050565b60606108c782610b7e565b506008600083815260200190815260200160002080546108e690611ee8565b80601f016020809104026020016040519081016040528092919081815260200182805461091290611ee8565b801561095f5780601f106109345761010080835404028352916020019161095f565b820191906000526020600020905b81548152906001019060200180831161094257829003601f168201915b50505050509050919050565b610973610c5d565b6000600754905061098483826112e4565b816008600083815260200190815260200160002090816109a491906120c5565b50807f459157ba24c7ab9878b165ef465fa6ae2ab42bcd8445f576be378768b0c47309836040516109d59190611905565b60405180910390a2600760008154809291906109f0906121fd565b9190505550505050565b6000600560008473ffffffffffffffffffffffffffffffffffffffff1673ffffffffffffffffffffffffffffffffffffffff16815260200190815260200160002060008373ffffffffffffffffffffffffffffffffffffffff1673ffffffffffffffffffffffffffffffffffffffff16815260200190815260200160002060009054906101000a900460ff16905092915050565b610a96610c5d565b600073ffffffffffffffffffffffffffffffffffffffff168173ffffffffffffffffffffffffffffffffffffffff1603610b085760006040517f1e4fbdf7000000000000000000000000000000000000000000000000000000008152600401610aff91906119cb565b60405180910390fd5b610b1181610efe565b50565b60007f01ffc9a7000000000000000000000000000000000000000000000000000000007bffffffffffffffffffffffffffffffffffffffffffffffffffffffff1916827bffffffffffffffffffffffffffffffffffffffffffffffffffffffff1916149050919050565b600080610b8a83611302565b9050600073ffffffffffffffffffffffffffffffffffffffff168173ffffffffffffffffffffffffffffffffffffffff1603610bfd57826040517f7e273289000000000000000000000000000000000000000000000000000000008152600401610bf49190611c72565b60405180910390fd5b80915050919050565b60006004600083815260200190815260200160002060009054906101000a900473ffffffffffffffffffffffffffffffffffffffff169050919050565b600033905090565b610c58838383600161133f565b505050565b610c65610c43565b73ffffffffffffffffffffffffffffffffffffffff16610c836107c5565b73ffffffffffffffffffffffffffffffffffffffff1614610ce257610ca6610c43565b6040517f118cdaa7000000000000000000000000000000000000000000000000000000008152600401610cd991906119cb565b60405180910390fd5b565b600080610cf084611302565b9050600073ffffffffffffffffffffffffffffffffffffffff168373ffffffffffffffffffffffffffffffffffffffff1614610d3257610d31818486611504565b5b600073ffffffffffffffffffffffffffffffffffffffff168173ffffffffffffffffffffffffffffffffffffffff1614610dc357610d7460008560008061133f565b6001600360008373ffffffffffffffffffffffffffffffffffffffff1673ffffffffffffffffffffffffffffffffffffffff168152602001908152602001600020600082825403925050819055505b600073ffffffffffffffffffffffffffffffffffffffff168573ffffffffffffffffffffffffffffffffffffffff1614610e46576001600360008773ffffffffffffffffffffffffffffffffffffffff1673ffffffffffffffffffffffffffffffffffffffff168152602001908152602001600020600082825401925050819055505b846002600086815260200190815260200160002060006101000a81548173ffffffffffffffffffffffffffffffffffffffff021916908373ffffffffffffffffffffffffffffffffffffffff160217905550838573ffffffffffffffffffffffffffffffffffffffff168273ffffffffffffffffffffffffffffffffffffffff167fddf252ad1be2c89b69c2b068fc378daa952ba7f163c4a11628f55a4df523b3ef60405160405180910390a4809150509392505050565b6000600660009054906101000a900473ffffffffffffffffffffffffffffffffffffffff16905081600660006101000a81548173ffffffffffffffffffffffffffffffffffffffff021916908373ffffffffffffffffffffffffffffffffffffffff1602179055508173ffffffffffffffffffffffffffffffffffffffff168173ffffffffffffffffffffffffffffffffffffffff167f8be0079c531659141344cd1fd0a4f28419497f9722a3daafe3b4186f6b6457e060405160405180910390a35050565b600073ffffffffffffffffffffffffffffffffffffffff168273ffffffffffffffffffffffffffffffffffffffff160361103557816040517f5b08ba1800000000000000000000000000000000000000000000000000000000815260040161102c91906119cb565b60405180910390fd5b80600560008573ffffffffffffffffffffffffffffffffffffffff1673ffffffffffffffffffffffffffffffffffffffff16815260200190815260200160002060008473ffffffffffffffffffffffffffffffffffffffff1673ffffffffffffffffffffffffffffffffffffffff16815260200190815260200160002060006101000a81548160ff0219169083151502179055508173ffffffffffffffffffffffffffffffffffffffff168373ffffffffffffffffffffffffffffffffffffffff167f17307eab39ab6107e8899845ad3d59bd9653f200f220920489ca2b5937696c3183604051611126919061185a565b60405180910390a3505050565b60008373ffffffffffffffffffffffffffffffffffffffff163b11156112dd578273ffffffffffffffffffffffffffffffffffffffff1663150b7a02868685856040518563ffffffff1660e01b8152600401611192949392919061229a565b6020604051808303816000875af19250505080156111ce57506040513d601f19601f820116820180604052508101906111cb91906122fb565b60015b611252573d80600081146111fe576040519150601f19603f3d011682016040523d82523d6000602084013e611203565b606091505b50600081510361124a57836040517f64a0ae9200000000000000000000000000000000000000000000000000000000815260040161124191906119cb565b60405180910390fd5b805160208201fd5b63150b7a0260e01b7bffffffffffffffffffffffffffffffffffffffffffffffffffffffff1916817bffffffffffffffffffffffffffffffffffffffffffffffffffffffff1916146112db57836040517f64a0ae920000000000000000000000000000000000000000000000000000000081526004016112d291906119cb565b60405180910390fd5b505b5050505050565b6112fe8282604051806020016040528060008152506115c8565b5050565b60006002600083815260200190815260200160002060009054906101000a900473ffffffffffffffffffffffffffffffffffffffff169050919050565b80806113785750600073ffffffffffffffffffffffffffffffffffffffff168273ffffffffffffffffffffffffffffffffffffffff1614155b156114ac57600061138884610b7e565b9050600073ffffffffffffffffffffffffffffffffffffffff168373ffffffffffffffffffffffffffffffffffffffff16141580156113f357508273ffffffffffffffffffffffffffffffffffffffff168173ffffffffffffffffffffffffffffffffffffffff1614155b8015611406575061140481846109fa565b155b1561144857826040517fa9fbf51f00000000000000000000000000000000000000000000000000000000815260040161143f91906119cb565b60405180910390fd5b81156114aa57838573ffffffffffffffffffffffffffffffffffffffff168273ffffffffffffffffffffffffffffffffffffffff167f8c5be1e5ebec7d5bd14f71427d1e84f3dd0314c0f7b2291e5b200ac8c7c3b92560405160405180910390a45b505b836004600085815260200190815260200160002060006101000a81548173ffffffffffffffffffffffffffffffffffffffff021916908373ffffffffffffffffffffffffffffffffffffffff16021790555050505050565b61150f8383836115ec565b6115c357600073ffffffffffffffffffffffffffffffffffffffff168373ffffffffffffffffffffffffffffffffffffffff160361158457806040517f7e27328900000000000000000000000000000000000000000000000000000000815260040161157b9190611c72565b60405180910390fd5b81816040517f177e802f0000000000000000000000000000000000000000000000000000000081526004016115ba929190612328565b60405180910390fd5b505050565b6115d283836116ad565b6115e76115dd610c43565b6000858585611133565b505050565b60008073ffffffffffffffffffffffffffffffffffffffff168373ffffffffffffffffffffffffffffffffffffffff16141580156116a457508273ffffffffffffffffffffffffffffffffffffffff168473ffffffffffffffffffffffffffffffffffffffff161480611665575061166484846109fa565b5b806116a357508273ffffffffffffffffffffffffffffffffffffffff1661168b83610c06565b73ffffffffffffffffffffffffffffffffffffffff16145b5b90509392505050565b600073ffffffffffffffffffffffffffffffffffffffff168273ffffffffffffffffffffffffffffffffffffffff160361171f5760006040517f64a0ae9200000000000000000000000000000000000000000000000000000000815260040161171691906119cb565b60405180910390fd5b600061172d83836000610ce4565b9050600073ffffffffffffffffffffffffffffffffffffffff168173ffffffffffffffffffffffffffffffffffffffff16146117a15760006040517f73c6ac6e00000000000000000000000000000000000000000000000000000000815260040161179891906119cb565b60405180910390fd5b505050565b6000604051905090565b600080fd5b600080fd5b60007fffffffff0000000000000000000000000000000000000000000000000000000082169050919050565b6117ef816117ba565b81146117fa57600080fd5b50565b60008135905061180c816117e6565b92915050565b600060208284031215611828576118276117b0565b5b6000611836848285016117fd565b91505092915050565b60008115159050919050565b6118548161183f565b82525050565b600060208201905061186f600083018461184b565b92915050565b600081519050919050565b600082825260208201905092915050565b60005b838110156118af578082015181840152602081019050611894565b60008484015250505050565b6000601f19601f8301169050919050565b60006118d782611875565b6118e18185611880565b93506118f1818560208601611891565b6118fa816118bb565b840191505092915050565b6000602082019050818103600083015261191f81846118cc565b905092915050565b6000819050919050565b61193a81611927565b811461194557600080fd5b50565b60008135905061195781611931565b92915050565b600060208284031215611973576119726117b0565b5b600061198184828501611948565b91505092915050565b600073ffffffffffffffffffffffffffffffffffffffff82169050919050565b60006119b58261198a565b9050919050565b6119c5816119aa565b82525050565b60006020820190506119e060008301846119bc565b92915050565b6119ef816119aa565b81146119fa57600080fd5b50565b600081359050611a0c816119e6565b92915050565b60008060408385031215611a2957611a286117b0565b5b6000611a37858286016119fd565b9250506020611a4885828601611948565b9150509250929050565b600080fd5b600080fd5b7f4e487b7100000000000000000000000000000000000000000000000000000000600052604160045260246000fd5b611a94826118bb565b810181811067ffffffffffffffff82111715611ab357611ab2611a5c565b5b80604052505050565b6000611ac66117a6565b9050611ad28282611a8b565b919050565b600067ffffffffffffffff821115611af257611af1611a5c565b5b611afb826118bb565b9050602081019050919050565b82818337600083830152505050565b6000611b2a611b2584611ad7565b611abc565b905082815260208101848484011115611b4657611b45611a57565b5b611b51848285611b08565b509392505050565b600082601f830112611b6e57611b6d611a52565b5b8135611b7e848260208601611b17565b91505092915050565b60008060408385031215611b9e57611b9d6117b0565b5b6000611bac85828601611948565b925050602083013567ffffffffffffffff811115611bcd57611bcc6117b5565b5b611bd985828601611b59565b9150509250929050565b600080600060608486031215611bfc57611bfb6117b0565b5b6000611c0a868287016119fd565b9350506020611c1b868287016119fd565b9250506040611c2c86828701611948565b9150509250925092565b600060208284031215611c4c57611c4b6117b0565b5b6000611c5a848285016119fd565b91505092915050565b611c6c81611927565b82525050565b6000602082019050611c876000830184611c63565b92915050565b611c968161183f565b8114611ca157600080fd5b50565b600081359050611cb381611c8d565b92915050565b60008060408385031215611cd057611ccf6117b0565b5b6000611cde858286016119fd565b9250506020611cef85828601611ca4565b9150509250929050565b600067ffffffffffffffff821115611d1457611d13611a5c565b5b611d1d826118bb565b9050602081019050919050565b6000611d3d611d3884611cf9565b611abc565b905082815260208101848484011115611d5957611d58611a57565b5b611d64848285611b08565b509392505050565b600082601f830112611d8157611d80611a52565b5b8135611d91848260208601611d2a565b91505092915050565b60008060008060808587031215611db457611db36117b0565b5b6000611dc2878288016119fd565b9450506020611dd3878288016119fd565b9350506040611de487828801611948565b925050606085013567ffffffffffffffff811115611e0557611e046117b5565b5b611e1187828801611d6c565b91505092959194509250565b60008060408385031215611e3457611e336117b0565b5b6000611e42858286016119fd565b925050602083013567ffffffffffffffff811115611e6357611e626117b5565b5b611e6f85828601611b59565b9150509250929050565b60008060408385031215611e9057611e8f6117b0565b5b6000611e9e858286016119fd565b9250506020611eaf858286016119fd565b9150509250929050565b7f4e487b7100000000000000000000000000000000000000000000000000000000600052602260045260246000fd5b60006002820490506001821680611f0057607f821691505b602082108103611f1357611f12611eb9565b5b50919050565b60008190508160005260206000209050919050565b60006020601f8301049050919050565b600082821b905092915050565b600060088302611f7b7fffffffffffffffffffffffffffffffffffffffffffffffffffffffffffffffff82611f3e565b611f858683611f3e565b95508019841693508086168417925050509392505050565b6000819050919050565b6000611fc2611fbd611fb884611927565b611f9d565b611927565b9050919050565b6000819050919050565b611fdc83611fa7565b611ff0611fe882611fc9565b848454611f4b565b825550505050565b600090565b612005611ff8565b612010818484611fd3565b505050565b5b8181101561203457612029600082611ffd565b600181019050612016565b5050565b601f8211156120795761204a81611f19565b61205384611f2e565b81016020851015612062578190505b61207661206e85611f2e565b830182612015565b50505b505050565b600082821c905092915050565b600061209c6000198460080261207e565b1980831691505092915050565b60006120b5838361208b565b9150826002028217905092915050565b6120ce82611875565b67ffffffffffffffff8111156120e7576120e6611a5c565b5b6120f18254611ee8565b6120fc828285612038565b600060209050601f83116001811461212f576000841561211d578287015190505b61212785826120a9565b86555061218f565b601f19841661213d86611f19565b60005b8281101561216557848901518255600182019150602085019450602081019050612140565b86831015612182578489015161217e601f89168261208b565b8355505b6001600288020188555050505b505050505050565b60006060820190506121ac60008301866119bc565b6121b96020830185611c63565b6121c660408301846119bc565b949350505050565b7f4e487b7100000000000000000000000000000000000000000000000000000000600052601160045260246000fd5b600061220882611927565b91507fffffffffffffffffffffffffffffffffffffffffffffffffffffffffffffffff820361223a576122396121ce565b5b600182019050919050565b600081519050919050565b600082825260208201905092915050565b600061226c82612245565b6122768185612250565b9350612286818560208601611891565b61228f816118bb565b840191505092915050565b60006080820190506122af60008301876119bc565b6122bc60208301866119bc565b6122c96040830185611c63565b81810360608301526122db8184612261565b905095945050505050565b6000815190506122f5816117e6565b92915050565b600060208284031215612311576123106117b0565b5b600061231f848285016122e6565b91505092915050565b600060408201905061233d60008301856119bc565b61234a6020830184611c63565b939250505056fea2646970667358221220bd56cc0bfba739d99375db926a74fdbff7ca004326088b1c617d164bc39a999f64736f6c63430008140033",
  "linkReferences": {},
  "deployedLinkReferences": {}
}